{
  "_format": "hh-sol-artifact-1",
  "contractName": "Challenge3",
  "sourceName": "contracts/Challenge3.sol",
  "abi": [
    {
      "inputs": [],
      "stateMutability": "nonpayable",
      "type": "constructor"
    },
    {
      "inputs": [
        {
          "internalType": "string",
          "name": "article_name",
          "type": "string"
        }
      ],
      "name": "getArticle",
      "outputs": [
        {
          "internalType": "address",
          "name": "",
          "type": "address"
        },
        {
          "internalType": "string",
          "name": "",
          "type": "string"
        },
        {
          "internalType": "string",
          "name": "",
          "type": "string"
        },
        {
          "internalType": "uint256",
          "name": "",
          "type": "uint256"
        }
      ],
      "stateMutability": "nonpayable",
      "type": "function"
    },
    {
      "inputs": [
        {
          "internalType": "string",
          "name": "_name",
          "type": "string"
        },
        {
          "internalType": "string",
          "name": "_description",
          "type": "string"
        },
        {
          "internalType": "int256",
          "name": "_price",
          "type": "int256"
        }
      ],
      "name": "sellArticle",
      "outputs": [],
      "stateMutability": "nonpayable",
      "type": "function"
    }
  ],
  "bytecode": "0x608060405234801561001057600080fd5b50600a600460008060009054906101000a900473ffffffffffffffffffffffffffffffffffffffff1673ffffffffffffffffffffffffffffffffffffffff1673ffffffffffffffffffffffffffffffffffffffff16815260200190815260200160002081905550611e2b806100866000396000f3fe608060405234801561001057600080fd5b50600436106100365760003560e01c8063a46666651461003b578063dee41a2b1461006e575b600080fd5b610055600480360381019061005091906107e1565b61008a565b604051610065949392919061090c565b60405180910390f35b61008860048036038101906100839190610995565b6102a4565b005b600060608060006040516020016100a090610bf3565b60405160208183030381529060405280519060200120856040516020016100c79190610c7b565b6040516020818303038152906040528051906020012014156101545760008054906101000a900473ffffffffffffffffffffffffffffffffffffffff1661010c61040b565b61012c6040518060400160405280600481526020017f464c4147000000000000000000000000000000000000000000000000000000008152509190935093509350935061029d565b60008054906101000a900473ffffffffffffffffffffffffffffffffffffffff166001600260035482805461018890610cc1565b80601f01602080910402602001604051908101604052809291908181526020018280546101b490610cc1565b80156102015780601f106101d657610100808354040283529160200191610201565b820191906000526020600020905b8154815290600101906020018083116101e457829003601f168201915b5050505050925081805461021490610cc1565b80601f016020809104026020016040519081016040528092919081815260200182805461024090610cc1565b801561028d5780601f106102625761010080835404028352916020019161028d565b820191906000526020600020905b81548152906001019060200180831161027057829003601f168201915b5050505050915093509350935093505b9193509193565b336000806101000a81548173ffffffffffffffffffffffffffffffffffffffff021916908373ffffffffffffffffffffffffffffffffffffffff16021790555082600190805190602001906102fa9291906105e4565b5081600290805190602001906103119291906105e4565b5080600381905550600081600460008060009054906101000a900473ffffffffffffffffffffffffffffffffffffffff1673ffffffffffffffffffffffffffffffffffffffff1673ffffffffffffffffffffffffffffffffffffffff168152602001908152602001600020546103879190610d22565b1261040657600354600460008060009054906101000a900473ffffffffffffffffffffffffffffffffffffffff1673ffffffffffffffffffffffffffffffffffffffff1673ffffffffffffffffffffffffffffffffffffffff16815260200190815260200160002060008282546103fe9190610db6565b925050819055505b505050565b606060405160200161041c90610f66565b604051602081830303815290604052600590805190602001906104409291906105e4565b506005604051602001610453919061124f565b604051602081830303815290604052600590805190602001906104779291906105e4565b50600560405160200161048a9190611451565b604051602081830303815290604052600590805190602001906104ae9291906105e4565b5060056040516020016104c191906116d5565b604051602081830303815290604052600590805190602001906104e59291906105e4565b5060056040516020016104f891906119fc565b6040516020818303038152906040526005908051906020019061051c9291906105e4565b50600560405160200161052f9190611d23565b604051602081830303815290604052600590805190602001906105539291906105e4565b506005805461056190610cc1565b80601f016020809104026020016040519081016040528092919081815260200182805461058d90610cc1565b80156105da5780601f106105af576101008083540402835291602001916105da565b820191906000526020600020905b8154815290600101906020018083116105bd57829003601f168201915b5050505050905090565b8280546105f090610cc1565b90600052602060002090601f0160209004810192826106125760008555610659565b82601f1061062b57805160ff1916838001178555610659565b82800160010185558215610659579182015b8281111561065857825182559160200191906001019061063d565b5b509050610666919061066a565b5090565b5b8082111561068357600081600090555060010161066b565b5090565b6000604051905090565b600080fd5b600080fd5b600080fd5b600080fd5b6000601f19601f8301169050919050565b7f4e487b7100000000000000000000000000000000000000000000000000000000600052604160045260246000fd5b6106ee826106a5565b810181811067ffffffffffffffff8211171561070d5761070c6106b6565b5b80604052505050565b6000610720610687565b905061072c82826106e5565b919050565b600067ffffffffffffffff82111561074c5761074b6106b6565b5b610755826106a5565b9050602081019050919050565b82818337600083830152505050565b600061078461077f84610731565b610716565b9050828152602081018484840111156107a05761079f6106a0565b5b6107ab848285610762565b509392505050565b600082601f8301126107c8576107c761069b565b5b81356107d8848260208601610771565b91505092915050565b6000602082840312156107f7576107f6610691565b5b600082013567ffffffffffffffff81111561081557610814610696565b5b610821848285016107b3565b91505092915050565b600073ffffffffffffffffffffffffffffffffffffffff82169050919050565b60006108558261082a565b9050919050565b6108658161084a565b82525050565b600081519050919050565b600082825260208201905092915050565b60005b838110156108a557808201518184015260208101905061088a565b838111156108b4576000848401525b50505050565b60006108c58261086b565b6108cf8185610876565b93506108df818560208601610887565b6108e8816106a5565b840191505092915050565b6000819050919050565b610906816108f3565b82525050565b6000608082019050610921600083018761085c565b818103602083015261093381866108ba565b9050818103604083015261094781856108ba565b905061095660608301846108fd565b95945050505050565b6000819050919050565b6109728161095f565b811461097d57600080fd5b50565b60008135905061098f81610969565b92915050565b6000806000606084860312156109ae576109ad610691565b5b600084013567ffffffffffffffff8111156109cc576109cb610696565b5b6109d8868287016107b3565b935050602084013567ffffffffffffffff8111156109f9576109f8610696565b5b610a05868287016107b3565b9250506040610a1686828701610980565b9150509250925092565b600081905092915050565b7f6769000000000000000000000000000000000000000000000000000000000000600082015250565b6000610a61600283610a20565b9150610a6c82610a2b565b600282019050919050565b7f7600000000000000000000000000000000000000000000000000000000000000600082015250565b6000610aad600183610a20565b9150610ab882610a77565b600182019050919050565b7f654d000000000000000000000000000000000000000000000000000000000000600082015250565b6000610af9600283610a20565b9150610b0482610ac3565b600282019050919050565b7f6500000000000000000000000000000000000000000000000000000000000000600082015250565b6000610b45600183610a20565b9150610b5082610b0f565b600182019050919050565b7f4d00000000000000000000000000000000000000000000000000000000000000600082015250565b6000610b91600183610a20565b9150610b9c82610b5b565b600182019050919050565b7f6f72000000000000000000000000000000000000000000000000000000000000600082015250565b6000610bdd600283610a20565b9150610be882610ba7565b600282019050919050565b6000610bfe82610a54565b9150610c0982610aa0565b9150610c1482610aec565b9150610c1f82610b38565b9150610c2a82610b84565b9150610c3582610bd0565b9150610c4082610b38565b9150819050919050565b6000610c558261086b565b610c5f8185610a20565b9350610c6f818560208601610887565b80840191505092915050565b6000610c878284610c4a565b915081905092915050565b7f4e487b7100000000000000000000000000000000000000000000000000000000600052602260045260246000fd5b60006002820490506001821680610cd957607f821691505b60208210811415610ced57610cec610c92565b5b50919050565b7f4e487b7100000000000000000000000000000000000000000000000000000000600052601160045260246000fd5b6000610d2d8261095f565b9150610d388361095f565b9250827f800000000000000000000000000000000000000000000000000000000000000001821260008412151615610d7357610d72610cf3565b5b827f7fffffffffffffffffffffffffffffffffffffffffffffffffffffffffffffff018213600084121615610dab57610daa610cf3565b5b828203905092915050565b6000610dc1826108f3565b9150610dcc836108f3565b925082821015610ddf57610dde610cf3565b5b828203905092915050565b7f6600000000000000000000000000000000000000000000000000000000000000600082015250565b6000610e20600183610a20565b9150610e2b82610dea565b600182019050919050565b7f6c00000000000000000000000000000000000000000000000000000000000000600082015250565b6000610e6c600183610a20565b9150610e7782610e36565b600182019050919050565b7f6100000000000000000000000000000000000000000000000000000000000000600082015250565b6000610eb8600183610a20565b9150610ec382610e82565b600182019050919050565b7f6700000000000000000000000000000000000000000000000000000000000000600082015250565b6000610f04600183610a20565b9150610f0f82610ece565b600182019050919050565b7f7b00000000000000000000000000000000000000000000000000000000000000600082015250565b6000610f50600183610a20565b9150610f5b82610f1a565b600182019050919050565b6000610f7182610e13565b9150610f7c82610e5f565b9150610f8782610eab565b9150610f9282610ef7565b9150610f9d82610f43565b9150819050919050565b60008190508160005260206000209050919050565b60008154610fc981610cc1565b610fd38186610a20565b94506001821660008114610fee5760018114610fff57611032565b60ff19831686528186019350611032565b61100885610fa7565b60005b8381101561102a5781548189015260018201915060208101905061100b565b838801955050505b50505092915050565b7f6400000000000000000000000000000000000000000000000000000000000000600082015250565b6000611071600183610a20565b915061107c8261103b565b600182019050919050565b7f6300000000000000000000000000000000000000000000000000000000000000600082015250565b60006110bd600183610a20565b91506110c882611087565b600182019050919050565b7f3300000000000000000000000000000000000000000000000000000000000000600082015250565b6000611109600183610a20565b9150611114826110d3565b600182019050919050565b7f3900000000000000000000000000000000000000000000000000000000000000600082015250565b6000611155600183610a20565b91506111608261111f565b600182019050919050565b7f3500000000000000000000000000000000000000000000000000000000000000600082015250565b60006111a1600183610a20565b91506111ac8261116b565b600182019050919050565b7f3100000000000000000000000000000000000000000000000000000000000000600082015250565b60006111ed600183610a20565b91506111f8826111b7565b600182019050919050565b7f3800000000000000000000000000000000000000000000000000000000000000600082015250565b6000611239600183610a20565b915061124482611203565b600182019050919050565b600061125b8284610fbc565b915061126682611064565b9150611271826110b0565b915061127c82610eab565b915061128782610b38565b9150611292826110fc565b915061129d82611148565b91506112a882611194565b91506112b382610e13565b91506112be826110b0565b91506112c9826111e0565b91506112d482611064565b91506112df82610e13565b91506112ea82611148565b91506112f58261122c565b915061130082610b38565b915061130b826111e0565b915061131682610e13565b915081905092915050565b7f3700000000000000000000000000000000000000000000000000000000000000600082015250565b6000611357600183610a20565b915061136282611321565b600182019050919050565b7f3200000000000000000000000000000000000000000000000000000000000000600082015250565b60006113a3600183610a20565b91506113ae8261136d565b600182019050919050565b7f3400000000000000000000000000000000000000000000000000000000000000600082015250565b60006113ef600183610a20565b91506113fa826113b9565b600182019050919050565b7f3000000000000000000000000000000000000000000000000000000000000000600082015250565b600061143b600183610a20565b915061144682611405565b600182019050919050565b600061145d8284610fbc565b91506114688261134a565b915061147382610eab565b915061147e82610e13565b915061148982611064565b915061149482611396565b915061149f826111e0565b91506114aa826113e2565b91506114b582610e13565b91506114c08261142e565b91506114cb82610b38565b91506114d6826111e0565b91506114e18261122c565b91506114ec82610eab565b91506114f782610b38565b9150611502826111e0565b915081905092915050565b7f5f00000000000000000000000000000000000000000000000000000000000000600082015250565b6000611543600183610a20565b915061154e8261150d565b600182019050919050565b7f7000000000000000000000000000000000000000000000000000000000000000600082015250565b600061158f600183610a20565b915061159a82611559565b600182019050919050565b7f7200000000000000000000000000000000000000000000000000000000000000600082015250565b60006115db600183610a20565b91506115e6826115a5565b600182019050919050565b7f5600000000000000000000000000000000000000000000000000000000000000600082015250565b6000611627600183610a20565b9150611632826115f1565b600182019050919050565b7f7400000000000000000000000000000000000000000000000000000000000000600082015250565b6000611673600183610a20565b915061167e8261163d565b600182019050919050565b7f4100000000000000000000000000000000000000000000000000000000000000600082015250565b60006116bf600183610a20565b91506116ca82611689565b600182019050919050565b60006116e18284610fbc565b91506116ec82611536565b91506116f782610e5f565b9150611702826110fc565b915061170d82611536565b915061171882611536565b915061172382611582565b915061172e826115ce565b9150611739826111e0565b91506117448261161a565b915061174f82610eab565b915061175a82611666565b915061176582610b38565b915061177082611536565b915061177b82610aa0565b9150611786826116b2565b9150611791826115ce565b915081905092915050565b7f6900000000000000000000000000000000000000000000000000000000000000600082015250565b60006117d2600183610a20565b91506117dd8261179c565b600182019050919050565b7f4000000000000000000000000000000000000000000000000000000000000000600082015250565b600061181e600183610a20565b9150611829826117e8565b600182019050919050565b7f6200000000000000000000000000000000000000000000000000000000000000600082015250565b600061186a600183610a20565b915061187582611834565b600182019050919050565b7f5300000000000000000000000000000000000000000000000000000000000000600082015250565b60006118b6600183610a20565b91506118c182611880565b600182019050919050565b7f6e00000000000000000000000000000000000000000000000000000000000000600082015250565b6000611902600183610a20565b915061190d826118cc565b600182019050919050565b7f4c00000000000000000000000000000000000000000000000000000000000000600082015250565b600061194e600183610a20565b915061195982611918565b600182019050919050565b7f4500000000000000000000000000000000000000000000000000000000000000600082015250565b600061199a600183610a20565b91506119a582611964565b600182019050919050565b7f6b00000000000000000000000000000000000000000000000000000000000000600082015250565b60006119e6600183610a20565b91506119f1826119b0565b600182019050919050565b6000611a088284610fbc565b9150611a13826117c5565b9150611a1e82611811565b9150611a298261185d565b9150611a3482610e5f565b9150611a3f82610b38565b9150611a4a826118a9565b9150611a5582611536565b9150611a60826110b0565b9150611a6b82610eab565b9150611a76826118f5565b9150611a8182611536565b9150611a8c82611941565b9150611a978261198d565b9150611aa2826116b2565b9150611aad826119d9565b9150611ab882611536565b915081905092915050565b7f5500000000000000000000000000000000000000000000000000000000000000600082015250565b6000611af9600183610a20565b9150611b0482611ac3565b600182019050919050565b7f4e00000000000000000000000000000000000000000000000000000000000000600082015250565b6000611b45600183610a20565b9150611b5082611b0f565b600182019050919050565b7f4300000000000000000000000000000000000000000000000000000000000000600082015250565b6000611b91600183610a20565b9150611b9c82611b5b565b600182019050919050565b7f5900000000000000000000000000000000000000000000000000000000000000600082015250565b6000611bdd600183610a20565b9150611be882611ba7565b600182019050919050565b7f5000000000000000000000000000000000000000000000000000000000000000600082015250565b6000611c29600183610a20565b9150611c3482611bf3565b600182019050919050565b7f5400000000000000000000000000000000000000000000000000000000000000600082015250565b6000611c75600183610a20565b9150611c8082611c3f565b600182019050919050565b7f4400000000000000000000000000000000000000000000000000000000000000600082015250565b6000611cc1600183610a20565b9150611ccc82611c8b565b600182019050919050565b7f7d00000000000000000000000000000000000000000000000000000000000000600082015250565b6000611d0d600183610a20565b9150611d1882611cd7565b600182019050919050565b6000611d2f8284610fbc565b9150611d3a82611aec565b9150611d45826118f5565b9150611d508261198d565b9150611d5b82611b38565b9150611d6682611b84565b9150611d71826115ce565b9150611d7c82611bd0565b9150611d8782611c1c565b9150611d9282611c68565b9150611d9d826110fc565b9150611da882611cb4565b9150611db382611536565b9150611dbe82611064565b9150611dc982611811565b9150611dd482611c68565b9150611ddf826116b2565b9150611dea82611d00565b91508190509291505056fea26469706673582212202afadce8a9e1725e4df4e29e5121bac66bb6ce3554c323cb8389d11e929279e864736f6c63430008090033",
  "linkReferences": {},
  "deployedLinkReferences": {}
}