{
  "_format": "hh-sol-artifact-1",
  "contractName": "Challenge3",
  "sourceName": "contracts/Challenge3.sol",
  "abi": [
    {
      "inputs": [],
      "stateMutability": "nonpayable",
      "type": "constructor"
    },
    {
      "inputs": [
        {
          "internalType": "string",
          "name": "article_name",
          "type": "string"
        }
      ],
      "name": "getArticle",
      "outputs": [
        {
          "internalType": "address",
          "name": "",
          "type": "address"
        },
        {
          "internalType": "string",
          "name": "",
          "type": "string"
        },
        {
          "internalType": "string",
          "name": "",
          "type": "string"
        },
        {
          "internalType": "uint256",
          "name": "",
          "type": "uint256"
        }
      ],
      "stateMutability": "nonpayable",
      "type": "function"
    },
    {
      "inputs": [
        {
          "internalType": "string",
          "name": "_name",
          "type": "string"
        },
        {
          "internalType": "string",
          "name": "_description",
          "type": "string"
        },
        {
          "internalType": "int256",
          "name": "_price",
          "type": "int256"
        }
      ],
      "name": "sellArticle",
      "outputs": [],
      "stateMutability": "nonpayable",
      "type": "function"
    }
  ],
  "bytecode": "0x608060405234801561001057600080fd5b50600a600460008060009054906101000a900473ffffffffffffffffffffffffffffffffffffffff1673ffffffffffffffffffffffffffffffffffffffff1673ffffffffffffffffffffffffffffffffffffffff16815260200190815260200160002081905550611613806100866000396000f3fe608060405234801561001057600080fd5b50600436106100365760003560e01c8063a46666651461003b578063dee41a2b1461006e575b600080fd5b610055600480360381019061005091906106cd565b61008a565b60405161006594939291906112b6565b60405180910390f35b6100886004803603810190610083919061070e565b6102a4565b005b600060608060006040516020016100a09061121e565b60405160208183030381529060405280519060200120856040516020016100c79190611014565b6040516020818303038152906040528051906020012014156101545760008054906101000a900473ffffffffffffffffffffffffffffffffffffffff1661010c61040b565b61012c6040518060400160405280600481526020017f464c4147000000000000000000000000000000000000000000000000000000008152509190935093509350935061029d565b60008054906101000a900473ffffffffffffffffffffffffffffffffffffffff1660016002600354828054610188906114f6565b80601f01602080910402602001604051908101604052809291908181526020018280546101b4906114f6565b80156102015780601f106101d657610100808354040283529160200191610201565b820191906000526020600020905b8154815290600101906020018083116101e457829003601f168201915b50505050509250818054610214906114f6565b80601f0160208091040260200160405190810160405280929190818152602001828054610240906114f6565b801561028d5780601f106102625761010080835404028352916020019161028d565b820191906000526020600020905b81548152906001019060200180831161027057829003601f168201915b5050505050915093509350935093505b9193509193565b336000806101000a81548173ffffffffffffffffffffffffffffffffffffffff021916908373ffffffffffffffffffffffffffffffffffffffff16021790555082600190805190602001906102fa9291906105ad565b5081600290805190602001906103119291906105ad565b5080600381905550600081600460008060009054906101000a900473ffffffffffffffffffffffffffffffffffffffff1673ffffffffffffffffffffffffffffffffffffffff1673ffffffffffffffffffffffffffffffffffffffff1681526020019081526020016000205461038791906113a6565b1261040657600354600460008060009054906101000a900473ffffffffffffffffffffffffffffffffffffffff1673ffffffffffffffffffffffffffffffffffffffff1673ffffffffffffffffffffffffffffffffffffffff16815260200190815260200160002060008282546103fe919061143a565b925050819055505b505050565b606060405160200161041c90611275565b604051602081830303815290604052600590805190602001906104409291906105ad565b50600560405160200161045391906110b0565b604051602081830303815290604052600590805190602001906104779291906105ad565b50600560405160200161048a919061102b565b604051602081830303815290604052600590805190602001906104ae9291906105ad565b5060056040516020016104c191906110f3565b604051602081830303815290604052600590805190602001906104e59291906105ad565b5060056040516020016104f89190611183565b6040516020818303038152906040526005908051906020019061051c9291906105ad565b506005805461052a906114f6565b80601f0160208091040260200160405190810160405280929190818152602001828054610556906114f6565b80156105a35780601f10610578576101008083540402835291602001916105a3565b820191906000526020600020905b81548152906001019060200180831161058657829003601f168201915b5050505050905090565b8280546105b9906114f6565b90600052602060002090601f0160209004810192826105db5760008555610622565b82601f106105f457805160ff1916838001178555610622565b82800160010185558215610622579182015b82811115610621578251825591602001919060010190610606565b5b50905061062f9190610633565b5090565b5b8082111561064c576000816000905550600101610634565b5090565b600061066361065e8461133a565b611309565b90508281526020810184848401111561067b57600080fd5b6106868482856114b4565b509392505050565b60008135905061069d816115c6565b92915050565b600082601f8301126106b457600080fd5b81356106c4848260208601610650565b91505092915050565b6000602082840312156106df57600080fd5b600082013567ffffffffffffffff8111156106f957600080fd5b610705848285016106a3565b91505092915050565b60008060006060848603121561072357600080fd5b600084013567ffffffffffffffff81111561073d57600080fd5b610749868287016106a3565b935050602084013567ffffffffffffffff81111561076657600080fd5b610772868287016106a3565b92505060406107838682870161068e565b9150509250925092565b6107968161146e565b82525050565b60006107a78261137f565b6107b1818561138a565b93506107c18185602086016114c3565b6107ca816115b5565b840191505092915050565b60006107e08261137f565b6107ea818561139b565b93506107fa8185602086016114c3565b80840191505092915050565b60008154610813816114f6565b61081d818661139b565b9450600182166000811461083857600181146108495761087c565b60ff1983168652818601935061087c565b6108528561136a565b60005b8381101561087457815481890152600182019150602081019050610855565b838801955050505b50505092915050565b600061089260018361139b565b91507f63000000000000000000000000000000000000000000000000000000000000006000830152600182019050919050565b60006108d260018361139b565b91507f67000000000000000000000000000000000000000000000000000000000000006000830152600182019050919050565b600061091260028361139b565b91507f6f720000000000000000000000000000000000000000000000000000000000006000830152600282019050919050565b600061095260018361139b565b91507f33000000000000000000000000000000000000000000000000000000000000006000830152600182019050919050565b600061099260028361139b565b91507f616e0000000000000000000000000000000000000000000000000000000000006000830152600282019050919050565b60006109d260028361139b565b91507f654d0000000000000000000000000000000000000000000000000000000000006000830152600282019050919050565b6000610a1260018361139b565b91507f61000000000000000000000000000000000000000000000000000000000000006000830152600182019050919050565b6000610a5260028361139b565b91507f61740000000000000000000000000000000000000000000000000000000000006000830152600282019050919050565b6000610a9260018361139b565b91507f72000000000000000000000000000000000000000000000000000000000000006000830152600182019050919050565b6000610ad260028361139b565b91507f70720000000000000000000000000000000000000000000000000000000000006000830152600282019050919050565b6000610b1260028361139b565b91507f656e0000000000000000000000000000000000000000000000000000000000006000830152600282019050919050565b6000610b5260038361139b565b91507f76617200000000000000000000000000000000000000000000000000000000006000830152600382019050919050565b6000610b9260018361139b565b91507f73000000000000000000000000000000000000000000000000000000000000006000830152600182019050919050565b6000610bd260018361139b565b91507f6c000000000000000000000000000000000000000000000000000000000000006000830152600182019050919050565b6000610c1260018361139b565b91507f4d000000000000000000000000000000000000000000000000000000000000006000830152600182019050919050565b6000610c5260018361139b565b91507f79000000000000000000000000000000000000000000000000000000000000006000830152600182019050919050565b6000610c9260028361139b565b91507f65640000000000000000000000000000000000000000000000000000000000006000830152600282019050919050565b6000610cd260018361139b565b91507f7d000000000000000000000000000000000000000000000000000000000000006000830152600182019050919050565b6000610d1260018361139b565b91507f76000000000000000000000000000000000000000000000000000000000000006000830152600182019050919050565b6000610d5260018361139b565b91507f65000000000000000000000000000000000000000000000000000000000000006000830152600182019050919050565b6000610d9260018361139b565b91507f7b000000000000000000000000000000000000000000000000000000000000006000830152600182019050919050565b6000610dd260028361139b565b91507f756e0000000000000000000000000000000000000000000000000000000000006000830152600282019050919050565b6000610e1260028361139b565b91507f70740000000000000000000000000000000000000000000000000000000000006000830152600282019050919050565b6000610e5260018361139b565b91507f5f000000000000000000000000000000000000000000000000000000000000006000830152600182019050919050565b6000610e9260028361139b565b91507f626c0000000000000000000000000000000000000000000000000000000000006000830152600282019050919050565b6000610ed260028361139b565b91507f67690000000000000000000000000000000000000000000000000000000000006000830152600282019050919050565b6000610f1260018361139b565b91507f66000000000000000000000000000000000000000000000000000000000000006000830152600182019050919050565b6000610f5260018361139b565b91507f69000000000000000000000000000000000000000000000000000000000000006000830152600182019050919050565b6000610f9260018361139b565b91507f64000000000000000000000000000000000000000000000000000000000000006000830152600182019050919050565b6000610fd260018361139b565b91507f6b000000000000000000000000000000000000000000000000000000000000006000830152600182019050919050565b61100e816114aa565b82525050565b600061102082846107d5565b915081905092915050565b60006110378284610806565b915061104282610ac5565b915061104d82610f45565b915061105882610d05565b915061106382610a45565b915061106e82610d45565b915061107982610e45565b915061108482610b45565b915061108f82610f45565b915061109a82610a05565b91506110a582610e85565b915081905092915050565b60006110bc8284610806565b91506110c782610bc5565b91506110d282610945565b91506110dd82610e45565b91506110e882610e45565b915081905092915050565b60006110ff8284610806565b915061110a82610d45565b915061111582610b85565b915061112082610e45565b915061112b82610885565b915061113682610985565b915061114182610e45565b915061114c82610bc5565b915061115782610d45565b915061116282610a05565b915061116d82610fc5565b915061117882610e45565b915081905092915050565b600061118f8284610806565b915061119a82610dc5565b91506111a582610b05565b91506111b082610885565b91506111bb82610a85565b91506111c682610c45565b91506111d182610e05565b91506111dc82610c85565b91506111e782610e45565b91506111f282610f85565b91506111fd82610a45565b915061120882610a05565b915061121382610cc5565b915081905092915050565b600061122982610ec5565b915061123482610d05565b915061123f826109c5565b915061124a82610d45565b915061125582610c05565b915061126082610905565b915061126b82610d45565b9150819050919050565b600061128082610f05565b915061128b82610bc5565b915061129682610a05565b91506112a1826108c5565b91506112ac82610d85565b9150819050919050565b60006080820190506112cb600083018761078d565b81810360208301526112dd818661079c565b905081810360408301526112f1818561079c565b90506113006060830184611005565b95945050505050565b6000604051905081810181811067ffffffffffffffff821117156113305761132f611586565b5b8060405250919050565b600067ffffffffffffffff82111561135557611354611586565b5b601f19601f8301169050602081019050919050565b60008190508160005260206000209050919050565b600081519050919050565b600082825260208201905092915050565b600081905092915050565b60006113b182611480565b91506113bc83611480565b9250827f8000000000000000000000000000000000000000000000000000000000000000018212600084121516156113f7576113f6611528565b5b827f7fffffffffffffffffffffffffffffffffffffffffffffffffffffffffffffff01821360008412161561142f5761142e611528565b5b828203905092915050565b6000611445826114aa565b9150611450836114aa565b92508282101561146357611462611528565b5b828203905092915050565b60006114798261148a565b9050919050565b6000819050919050565b600073ffffffffffffffffffffffffffffffffffffffff82169050919050565b6000819050919050565b82818337600083830152505050565b60005b838110156114e15780820151818401526020810190506114c6565b838111156114f0576000848401525b50505050565b6000600282049050600182168061150e57607f821691505b6020821081141561152257611521611557565b5b50919050565b7f4e487b7100000000000000000000000000000000000000000000000000000000600052601160045260246000fd5b7f4e487b7100000000000000000000000000000000000000000000000000000000600052602260045260246000fd5b7f4e487b7100000000000000000000000000000000000000000000000000000000600052604160045260246000fd5b6000601f19601f8301169050919050565b6115cf81611480565b81146115da57600080fd5b5056fea2646970667358221220c6c5bc18a022d72c2a4eb0bfa7b210db3984dc897bacf74a8fb48624f737172064736f6c63430008000033",
  "linkReferences": {},
  "deployedLinkReferences": {}
}